:100000000C9434000C9451000C9451000C94510049
:100010000C94A6020C9451000C9451000C945100C5
:100020000C9451000C9451000C9451000C9451000C
:100030000C9451000C9451000C945F000C945100EE
:100040000C9451000C9451000C9451000C945100EC
:100050000C9451000C9451000C9451000C945100DC
:100060000C9451000C94510011241FBECFEFD8E026
:10007000DEBFCDBF12E0A8E0B2E001C01D92AB31FF
:10008000B107E1F712E0A0E0B1E0E6EAFFE102C06B
:1000900005900D92A830B107D9F70E94B4000C94D6
:1000A000D10F0C94000082E084BD83E085BD89EF10
:1000B00087BDEEE6F0E080818260808308951F9224
:1000C0000F920FB60F9211242F933F934F935F938C
:1000D0008F939F93AF93BF938091080290910902F1
:1000E000A0910A02B0910B020196A11DB11D80934F
:1000F000080290930902A0930A02B0930B02809128
:10010000080290910902A0910A02B0910B0220917D
:100110001302309114024091150250911602821B75
:10012000930BA40BB50B883C9105A105B10578F0A4
:1001300028533F4F4F4F5F4F2093130230931402C9
:10014000409315025093160281E080930C02BF91F8
:10015000AF919F918F915F914F913F912F910F9010
:100160000FBE0F901F9018957F928F929F92AF9223
:10017000BF92CF92DF92EF92FF920F931F93CF9394
:10018000DF930E941F020E9441020E94D10282E07E
:1001900084BD83E085BD89EF87BD80916E0082605C
:1001A00080936E00789488EB9BE00E94430280E18C
:1001B00097E220E931E0F9013197F1F70197D9F79A
:1001C000AA24C0E9D1E07724739480910C0288239B
:1001D000E1F310920C020E94410888EB9BE00E9420
:1001E000430288E893E1FE013197F1F70197D9F7CF
:1001F0000E9451028C0188EE93E00E94430288E83D
:1002000093E1FE013197F1F70197D9F70E9451026E
:100210004C0188EB9BE00E94430284EF91E0FE01D9
:100220003197F1F70197D9F7B80180E090E0AA2063
:1002300069F40E94050D20E030E040E651E40E94A0
:10024000230C882374F4AA24A3940BC00E94050DE8
:1002500020E030E040EA51E40E94C30B18160CF491
:10026000AA24B80180E090E00E94050D7B018C017A
:10027000CC2420E030E040E751E40E94230C8823A6
:1002800014F4CC24C394C0920F02C801B70120E03B
:1002900030E040E751E40E94F30B87FF03C080E0A9
:1002A00090E00FC0DD24C801B70120E030E048E451
:1002B00052E40E94230C87FD02C0DD24D394D7248E
:1002C0008D2DB82E80931002DD24C801B70120E0E7
:1002D00030E048E452E40E94F30B882314F0DD245C
:1002E000D394D092110210E0B40180E090E00E941B
:1002F000050D26E636E648E152E40E94230C8823E9
:100300000CF411E010931202BB2011F4112319F127
:10031000CC2009F45EC01123F1F08CED90E040E0B8
:1003200050E060EA70E400E010E020EE30E40E946B
:10033000D9060E9441088CE291E0FE013197F1F765
:100340000197D9F782EC91E040E050E060E870E47A
:100350000E94BC036AC0DD2009F448C084E690E036
:1003600040E050E060EA70E400E010E020EE30E4AD
:100370000E9462060E94410888EE93E0FE013197D8
:10038000F1F70197D9F78EE591E040E050E060E6A3
:1003900070E40E94DA020E94410888E893E1FE01BD
:1003A0003197F1F70197D9F784E690E040E050E00B
:1003B00060EA70E400E010E020EE30E40E946206A3
:1003C0000E94410888EE93E0FE013197F1F7019712
:1003D000D9F784E690E040E050E060EA70E400E0A5
:1003E00010E020EE30E40E9462061FC0AA20E9F06F
:1003F0008CED90E040E050E060EA70E400E010E056
:1004000020EE30E40E94D9060E94410888EE93E075
:10041000FE013197F1F70197D9F780E991E040E0CB
:1004200050E060E670E40E94DA020E94410884EF26
:1004300091E0FE013197F1F70197D9F7C6CE229AE4
:1004400082E2809380008AE18093810080E49CE9CD
:10045000909387008093860088EB9BE090938B00BD
:1004600080938A00219A29983898E8E6F0E0808104
:1004700082608083ECE6F0E0808181608083789404
:100480000895229A089590938B0080938A0084ECBB
:1004900099E020E931E0F9013197F1F70197D9F7B7
:1004A0000895109218021092170210921A021092D8
:1004B000190282E08CBB299A85E38A95F1F7299885
:1004C00020E030E040E050E065E003C0862F8A95F0
:1004D000F1F78091190290911A02892B31F0205185
:1004E00037424040504070F024C02F5F3F4F4F4F85
:1004F0005F4F213187E2380780E0480780E05807E6
:1005000029F717C06091190270911A0280E090E0FB
:100510000E94050D20E030E040E05FE30E941D0AEC
:1005200020E030E048E652E40E94170B0E944708A2
:1005300002C060E971E0CB0108950E94510220E001
:1005400001970E9708F421E0822F08951F920F92D1
:100550000FB60F9211242F933F938F939F93309B4D
:1005600009C0809184009091850090931802809337
:1005700017020EC08091840090918500209117028F
:1005800030911802821B930B90931A0280931902E8
:100590009F918F913F912F910F900FBE0F901F90C1
:1005A0001895239A8AB1886F8AB92B988BB1877076
:1005B0008BB908952F923F924F925F926F927F92E4
:1005C0008F929F92AF92BF92CF92DF92EF92FF9263
:1005D0000F931F93DF93CF9300D000D000D0CDB7FF
:1005E000DEB77C015E9A5F98CB01BA010E94B10C24
:1005F0008B019C012AE030E0201B310BC7016AE02F
:1006000070E00E94730F6D837E8388249924C80153
:10061000AA2797FDA095BA2F89839A83AB83BC83C1
:1006200080E9282E81E0382E2901662457FC609449
:10063000762C83C02B9A69817A818B819C810E9460
:10064000530C5B016C0120E030E04AE755E40E9466
:100650001D0A7B018C0120E030E040E85FE30E944E
:10066000230C88231CF461E070E022C0C801B701AC
:1006700020E03FEF4FE757E40E94C30B1816A4F4A5
:10068000C601B50120E030E040E251E40E941D0ABD
:100690000E94470805C0C1010197F1F76150704001
:1006A00061157105C1F707C0C801B7010E9447086D
:1006B000CB010197F1F72B98C301B2010E94530CB3
:1006C0005B016C0120E030E04AE755E40E941D0A1E
:1006D0007B018C0120E030E040E85FE30E94230CC6
:1006E00088231CF461E070E022C0C801B70120E05B
:1006F0003FEF4FE757E40E94C30B1816A4F4C6015E
:10070000B50120E030E040E251E40E941D0A0E9461
:10071000470805C0C1010197F1F7615070406115AC
:100720007105C1F707C0C801B7010E944708CB0196
:100730000197F1F70894811C911CAD81BE818A1646
:100740009B060CF477CF26960FB6F894DEBF0FBE4B
:10075000CDBFCF91DF911F910F91FF90EF90DF9070
:10076000CF90BF90AF909F908F907F906F905F9051
:100770004F903F902F9008952F923F924F925F920B
:100780006F927F928F929F92AF92BF92CF92DF92A1
:10079000EF92FF920F931F93DF93CF9300D000D07F
:1007A00000D0CDB7DEB77C015D9A5C98CB01BA0171
:1007B0000E94B10C8B019C012AE030E0201B310B20
:1007C000C7016AE070E00E94730F6D837E83882406
:1007D0009924C801AA2797FDA095BA2F89839A83E7
:1007E000AB83BC8390E9292E91E0392E2901662440
:1007F00057FC6094762C83C05B9A69817A818B81E7
:100800009C810E94530C5B016C0120E030E04AE7C0
:1008100055E40E941D0A7B018C0120E030E040E895
:100820005FE30E94230C88231CF461E070E022C087
:10083000C801B70120E03FEF4FE757E40E94C30B28
:100840001816A4F4C601B50120E030E040E251E4FE
:100850000E941D0A0E94470805C0C1010197F1F7D7
:100860006150704061157105C1F707C0C801B7013B
:100870000E944708CB010197F1F75B98C301B201D1
:100880000E94530C5B016C0120E030E04AE755E424
:100890000E941D0A7B018C0120E030E040E85FE30C
:1008A0000E94230C88231CF461E070E022C0C80180
:1008B000B70120E03FEF4FE757E40E94C30B181643
:1008C000A4F4C601B50120E030E040E251E40E940A
:1008D0001D0A0E94470805C0C1010197F1F7615048
:1008E000704061157105C1F707C0C801B7010E94CA
:1008F0004708CB010197F1F70894811C911CAD8149
:10090000BE818A169B060CF477CF26960FB6F89414
:10091000DEBF0FBECDBFCF91DF911F910F91FF9032
:10092000EF90DF90CF90BF90AF909F908F907F908F
:100930006F905F904F903F902F9008952F923F922D
:100940004F925F926F927F928F929F92AF92BF92DF
:10095000CF92DF92EF92FF920F931F93DF93CF938B
:1009600000D000D000D0CDB7DEB77C015E985F9A92
:10097000CB01BA010E94B10C8B019C012AE030E04E
:10098000201B310BC7016AE070E00E94730F6D837A
:100990007E8388249924C801AA2797FDA095BA2FA1
:1009A00089839A83AB83BC8340E9242E41E0342EB3
:1009B0002901662457FC6094762C83C02B9A6981A8
:1009C0007A818B819C810E94530C5B016C0120E039
:1009D00030E04AE755E40E941D0A7B018C0120E0CB
:1009E00030E040E85FE30E94230C88231CF461E0C0
:1009F00070E022C0C801B70120E03FEF4FE757E4A5
:100A00000E94C30B1816A4F4C601B50120E030E023
:100A100040E251E40E941D0A0E94470805C0C1013E
:100A20000197F1F76150704061157105C1F707C07A
:100A3000C801B7010E944708CB010197F1F72B9835
:100A4000C301B2010E94530C5B016C0120E030E055
:100A50004AE755E40E941D0A7B018C0120E030E04A
:100A600040E85FE30E94230C88231CF461E070E0FF
:100A700022C0C801B70120E03FEF4FE757E40E94D2
:100A8000C30B1816A4F4C601B50120E030E040E223
:100A900051E40E941D0A0E94470805C0C101019748
:100AA000F1F76150704061157105C1F707C0C801C9
:100AB000B7010E944708CB010197F1F70894811C08
:100AC000911CAD81BE818A169B060CF477CF2696C9
:100AD0000FB6F894DEBF0FBECDBFCF91DF911F914F
:100AE0000F91FF90EF90DF90CF90BF90AF909F90CD
:100AF0008F907F906F905F904F903F902F900895D0
:100B00002F923F924F925F926F927F928F929F921D
:100B1000AF92BF92CF92DF92EF92FF920F931F930B
:100B2000DF93CF9300D000D000D0CDB7DEB77C01EB
:100B30005D985C9ACB01BA010E94B10C8B019C01BB
:100B40002AE030E0201B310BC7016AE070E00E9410
:100B5000730F6D837E8388249924C801AA2797FD8B
:100B6000A095BA2F89839A83AB83BC8350E9252E45
:100B700051E0352E2901662457FC6094762C83C001
:100B80005B9A69817A818B819C810E94530C5B0105
:100B90006C0120E030E04AE755E40E941D0A7B0129
:100BA0008C0120E030E040E85FE30E94230C8823C2
:100BB0001CF461E070E022C0C801B70120E03FEF03
:100BC0004FE757E40E94C30B1816A4F4C601B50101
:100BD00020E030E040E251E40E941D0A0E944708F4
:100BE00005C0C1010197F1F76150704061157105B1
:100BF000C1F707C0C801B7010E944708CB010197A0
:100C0000F1F75B98C301B2010E94530C5B016C01C8
:100C100020E030E04AE755E40E941D0A7B018C0188
:100C200020E030E040E85FE30E94230C88231CF4BE
:100C300061E070E022C0C801B70120E03FEF4FE75C
:100C400057E40E94C30B1816A4F4C601B50120E0B6
:100C500030E040E251E40E941D0A0E94470805C0AE
:100C6000C1010197F1F76150704061157105C1F73D
:100C700007C0C801B7010E944708CB010197F1F7EF
:100C80000894811C911CAD81BE818A169B060CF4D0
:100C900077CF26960FB6F894DEBF0FBECDBFCF91AB
:100CA000DF911F910F91FF90EF90DF90CF90BF9059
:100CB000AF909F908F907F906F905F904F903F90FC
:100CC0002F900895CF92DF92EF92FF920F931F9390
:100CD000CF93DF936C01780189018BB180668BB96A
:100CE0008BB18F768BB9CB01BA0120E030E040E0C8
:100CF0005FE30E94F0090E94B10CEB01C801B7014B
:100D000020E030E040E05FE30E94F0090E94B10C77
:100D10008B01C6016AE070E00E94730FFB01C601FF
:100D20006AE070E00E94730FBC0140E050E0A0EA6E
:100D3000BFE018C020E030E02C173D0714F42B9AD8
:100D400001C02B982017310714F45B9A01C05B98FF
:100D5000CD010197F1F72F5F3F4F2A30310561F741
:100D60004F5F5F4F4E175F072CF320E030E040EA03
:100D70005FE011C02C173D0714F42B9A01C02B988B
:100D80002017310714F45B9A01C05B98CA010197E0
:100D9000F1F72F5F3F4F2617370764F32B985B98C7
:100DA000DF91CF911F910F91FF90EF90DF90CF9047
:100DB00008952F923F924F925F926F927F928F92FF
:100DC0009F92AF92BF92CF92DF92EF92FF920F93DA
:100DD0001F93DF93CF93CDB7DEB72E970FB6F8945E
:100DE000DEBF0FBECDBF5C01680179015E985F9ADE
:100DF0005D985C9ACB01BA010E94B10C4B010AE0EC
:100E000010E09801261B370B3C832B83C701B601EA
:100E10000E94B10C7E876D87A801461B570B5A8331
:100E20004983C5016AE070E00E94730F3B014424CE
:100E3000552460E9262E61E0362E8D859E85881921
:100E400099099C01442737FD4095542F2D833E83FB
:100E50004F835887C4014D855E85841B950B9C018B
:100E6000442737FD4095542F29873A874B875C8765
:100E7000EBC02B9A5B9A2D853E85821693060CF467
:100E80009401B901882777FD8095982F0E94530C13
:100E90005B016C0120E030E04AE755E40E941D0A46
:100EA0007B018C0120E030E040E85FE30E94230CEE
:100EB00088231CF461E070E022C0C801B70120E083
:100EC0003FEF4FE757E40E94C30B1816A4F4C60186
:100ED000B50120E030E040E251E40E941D0A0E948A
:100EE000470805C0C1010197F1F7615070406115D5
:100EF0007105C1F707C0C801B7010E944708CB01BF
:100F00000197F1F74D855E854815590524F02B981A
:100F1000841695065CF05B988D859E8588159905ED
:100F20002CF469857A858B859C8504C06D817E81D2
:100F30008F8198850E94530C5B016C0120E030E0AA
:100F40004AE755E40E941D0A7B018C0120E030E055
:100F500040E85FE30E94230C88231CF461E070E00A
:100F600022C0C801B70120E03FEF4FE757E40E94DD
:100F7000C30B1816A4F4C601B50120E030E040E22E
:100F800051E40E941D0A0E94470805C0C101019753
:100F9000F1F76150704061157105C1F707C0C801D4
:100FA000B7010E944708CB010197F1F72B985B9896
:100FB00029813A81EB81FC812E173F070CF49F01B8
:100FC000B901882777FD8095982F0E94530C5B010B
:100FD0006C0120E030E04AE755E40E941D0A7B01E5
:100FE0008C0120E030E040E85FE30E94230C88237E
:100FF0001CF461E070E022C0C801B70120E03FEFBF
:101000004FE757E40E94C30B1816A4F4C601B501BC
:1010100020E030E040E251E40E941D0A0E944708AF
:1010200005C0C1010197F1F761507040611571056C
:10103000C1F707C0C801B7010E944708CB0101975B
:10104000F1F70894411C511C461457040CF411CFBD
:101050002E960FB6F894DEBF0FBECDBFCF91DF91B5
:101060001F910F91FF90EF90DF90CF90BF90AF90C6
:101070009F908F907F906F905F904F903F902F90B8
:1010800008952B985B988BB18F708BB90895EF9270
:10109000FF920F931F937B018C0120E030E040E032
:1010A0005FE40E94F30B88238CF0C801B70120E0B5
:1010B00030E040E05FE40E94BF090E94B10C9B0158
:1010C000AC01205030404040504806C0C801B70134
:1010D0000E94B10C9B01AC01B901CA011F910F9193
:1010E000FF90EF900895A0E0B0E0E9E7F8E00C94FD
:1010F0009A0FDC012B01FA019C91923008F439C15E
:10110000EB018881823008F433C1943069F4843073
:1011100009F02FC111969C9111978981981709F4B4
:1011200028C1A0E0B1E025C1843009F421C182309A
:10113000A9F4923009F01DC19A01AD0188E0EA01DD
:101140000990AE01E90109929E018150C1F7E201C7
:10115000898111969C918923818308C1923009F479
:1011600007C112962D903C901397EB018A819B81C9
:101170001496AD90BD90CD90DC901797EC80FD80DB
:101180000E811F819101281B390BB90137FF04C063
:1011900066277727621B730B603271050CF061C004
:1011A000121613066CF537014801062E04C09694FA
:1011B0008794779467940A94D2F721E030E040E076
:1011C00050E004C0220F331F441F551F6A95D2F709
:1011D00021503040404050402E213F214023512398
:1011E000211531054105510521F021E030E040E0B5
:1011F00050E079018A01E628F728082919293CC01E
:10120000232BD1F1260E371E35014601062E04C0D0
:1012100096948794779467940A94D2F721E030E00B
:1012200040E050E004C0220F331F441F551F6A9551
:10123000D2F721503040404050402A213B214C21E0
:101240005D21211531054105510521F021E030E0F6
:1012500040E050E059016A01A628B728C828D928DB
:101260000BC0821593052CF01C01AA24BB24650138
:1012700003C0EE24FF24870111969C91D2011196A0
:101280008C91981709F445C0992339F0A80197016A
:101290002A193B094C095D0906C0A60195012E19C2
:1012A0003F09400B510B57FD08C011823382228247
:1012B00024833583468357831DC081E08183338235
:1012C000228288279927DC01821B930BA40BB50B84
:1012D00084839583A683B7830DC0220F331F441FD9
:1012E000551F2483358346835783828193810197D9
:1012F000938382832481358146815781DA01C90134
:101300000197A109B1098F5F9F4FAF4FBF4328F3EA
:101310000BC0918333822282EA0CFB1C0C1D1D1D25
:10132000E482F5820683178383E0808324813581FC
:101330004681578157FF1AC0C901AA2797FDA0957A
:10134000BA2F81709070A070B07056954795379500
:101350002795822B932BA42BB52B84839583A6836F
:10136000B78382819381019693838283DF0101C0D9
:10137000D201CD01CDB7DEB7E2E10C94B60FA0E209
:10138000B0E0E5ECF9E00C94A60F69837A838B83D7
:101390009C832D833E834F835887E9E0EE2EF12C0A
:1013A000EC0EFD1ECE010196B7010E94A20E8E0129
:1013B0000F5E1F4FCE010596B8010E94A20E8A89CA
:1013C00091E089278A8BC701B801AE01475E5F4F64
:1013D0000E9473080E94CD0DA096E6E00C94C20F07
:1013E000A0E2B0E0E6EFF9E00C94A60F69837A83FF
:1013F0008B839C832D833E834F835887F9E0EF2EA8
:10140000F12CEC0EFD1ECE010196B7010E94A20E3A
:101410008E010F5E1F4FCE010596B8010E94A20EED
:10142000C701B801AE01475E5F4F0E9473080E947A
:10143000CD0DA096E6E00C94C20FA0E2B0E0E3E28E
:10144000FAE00C949A0F69837A838B839C832D83B3
:101450003E834F835887CE010196BE01675F7F4F61
:101460000E94A20ECE010596BE016F5E7F4F0E94C4
:10147000A20E9985923088F089898230C8F0943024
:1014800019F4823051F404C0843029F4923081F48C
:1014900080E091E0C6C0923049F420E09A858A89C4
:1014A000981321E02A87CE010996BBC0823049F407
:1014B00020E09A858A89981321E02A8BCE014196F3
:1014C000B0C02D843E844F8458886D887E888F8874
:1014D000988CEE24FF248701AA24BB24650140E0F8
:1014E00050E060E070E0E0E0F0E0C10181709070F9
:1014F000892BE9F0E60CF71C081D191D9A01AB01B8
:101500002A0D3B1D4C1D5D1D80E090E0A0E0B0E089
:10151000E614F7040805190520F481E090E0A0E046
:10152000B0E0BA01A901480F591F6A1F7B1FAA0C1E
:10153000BB1CCC1CDD1C97FE08C081E090E0A0E045
:10154000B0E0A82AB92ACA2ADB2A3196E032F1058E
:1015500049F0660C771C881C991C56944794379464
:101560002794C3CFFA85EA892B893C898B859C8592
:10157000280F391F2E5F3F4F17C0CA01817090702E
:10158000892B61F016950795F794E79480E090E039
:10159000A0E0B0E8E82AF92A0A2B1B2B769567957C
:1015A000579547952F5F3F4F77FDE7CF0CC0440F0E
:1015B000551F661F771F17FD4160EE0CFF1C001FB3
:1015C000111F21503040403090E0590790E06907EA
:1015D00090E4790760F32B8F3C8FDB01CA018F7792
:1015E0009070A070B07080349105A105B10561F4D0
:1015F00047FD0AC0E114F1040105110529F0405C22
:101600005F4F6F4F7F4F40781A8EFE1711F081E0C9
:101610008A8F4D8F5E8F6F8F78A383E0898FCE0185
:1016200049960E94CD0DA096E2E10C94B60FA8E178
:10163000B0E0EDE1FBE00C94A20F69837A838B8329
:101640009C832D833E834F835887B9E0EB2EF12C8A
:10165000EC0EFD1ECE010196B7010E94A20E8E0176
:101660000F5E1F4FCE010596B8010E94A20E29857C
:10167000223008F47EC03989323010F4B8017CC0C1
:101680008A859A8989278A87243011F0223031F49B
:10169000231709F06EC060E071E06EC0343039F499
:1016A0001D861E861F86188A1C861B8604C0323043
:1016B00021F484E08987B7015FC02B853C858B8945
:1016C0009C89281B390B3C872B87ED84FE840F8572
:1016D0001889AD88BE88CF88D88CEA14FB040C0525
:1016E0001D0540F4EE0CFF1C001F111F215030405F
:1016F0003C872B8720E030E040E050E080E090E045
:10170000A0E0B0E460E070E0EA14FB040C051D0505
:1017100040F0282B392B4A2B5B2BEA18FB080C09CD
:101720001D09B695A79597958795EE0CFF1C001F90
:10173000111F6F5F7F4F6F31710531F7DA01C901FA
:101740008F779070A070B07080349105A105B105BD
:1017500061F427FD0AC0E114F1040105110529F027
:10176000205C3F4F4F4F5F4F20782D873E874F873C
:10177000588BBE01675F7F4FCB010E94CD0D6896ED
:10178000EAE00C94BE0FA8E1B0E0E9ECFBE00C94B9
:10179000A60F69837A838B839C832D833E834F833B
:1017A000588789E0E82EF12CEC0EFD1ECE01019643
:1017B000B7010E94A20E8E010F5E1F4FCE0105964B
:1017C000B8010E94A20E8985823040F0898982305A
:1017D00028F0C701B8010E941A0F01C08FEF689668
:1017E000E6E00C94C20FA8E1B0E0E9EFFBE00C9456
:1017F000A60F69837A838B839C832D833E834F83DB
:10180000588789E0E82EF12CEC0EFD1ECE010196E2
:10181000B7010E94A20E8E010F5E1F4FCE010596EA
:10182000B8010E94A20E8985823040F089898230F9
:1018300028F0C701B8010E941A0F01C08FEF689607
:10184000E6E00C94C20FA8E1B0E0E9E2FCE00C9401
:10185000A60F69837A838B839C832D833E834F837A
:10186000588789E0E82EF12CEC0EFD1ECE01019682
:10187000B7010E94A20E8E010F5E1F4FCE0105968A
:10188000B8010E94A20E8985823040F08989823099
:1018900028F0C701B8010E941A0F01C081E06896C4
:1018A000E6E00C94C20FA8E0B0E0E9E5FCE00C949F
:1018B000A30F9B01AC0183E08983DA01C90188276A
:1018C000B7FD83959927AA27BB27B82E2115310587
:1018D0004105510519F482E089833AC08823A9F0B3
:1018E000203080E0380780E0480780E8580729F476
:1018F00060E070E080E09FEC30C0EE24FF248701C0
:10190000E21AF30A040B150B02C079018A018EE179
:10191000C82ED12CDC82CB82ED82FE820F83188709
:10192000C801B7010E947E0D01971816190684F4AC
:10193000082E04C0EE0CFF1C001F111F0A94D2F7E2
:10194000ED82FE820F831887C81AD90ADC82CB8207
:10195000BA82CE0101960E94CD0D2896E9E00C9442
:10196000BF0FACE0B0E0E7EBFCE00C94AA0F69839A
:101970007A838B839C83CE010196BE016B5F7F4F80
:101980000E94A20E8D81823061F1823050F184304C
:1019900021F48E81882351F12EC02F81388537FDA7
:1019A00020C06E812F3131051CF06623F9F023C071
:1019B0008EE190E0821B930B29853A854B855C85EF
:1019C00004C056954795379527958A95D2F7662393
:1019D000B1F050954095309521953F4F4F4F5F4F57
:1019E0000EC020E030E040E050E009C02FEF3FEFB4
:1019F0004FEF5FE704C020E030E040E050E8B9017D
:101A0000CA012C96E2E00C94C60FA8E0B0E0EBE02F
:101A1000FDE00C94A20F7B018C016115710581051D
:101A2000910519F482E0898360C083E089838EE1A7
:101A3000C82ED12CDC82CB82ED82FE820F831887E8
:101A4000C801B7010E947E0DFC013197F7FF3BC032
:101A5000222733272E1B3F0B57016801022E04C09B
:101A6000D694C794B794A7940A94D2F740E050E074
:101A700060E070E081E090E0A0E0B0E004C0880F9A
:101A8000991FAA1FBB1F2A95D2F70197A109B10977
:101A90008E219F21A023B1230097A105B10521F03C
:101AA00041E050E060E070E04A295B296C297D2923
:101AB0004D835E836F8378878EE190E08E1B9F0B52
:101AC0009C838B8312C0309781F00E2E04C0EE0CE5
:101AD000FF1C001F111F0A94D2F7ED82FE820F83B4
:101AE0001887CE1ADF0ADC82CB821A82CE010196D9
:101AF0000E94CD0D2896EAE00C94BE0FEF92FF9263
:101B00000F931F937B018C0180E0E81680E0F806BC
:101B100081E0080780E0180788F48FEFE816F104E9
:101B20000105110531F028F088E090E0A0E0B0E078
:101B300017C080E090E0A0E0B0E012C080E0E816BE
:101B400080E0F80680E0080781E0180728F088E1C7
:101B500090E0A0E0B0E004C080E190E0A0E0B0E060
:101B600020E230E040E050E0281B390B4A0B5B0BD1
:101B700004C016950795F794E7948A95D2F7F70174
:101B8000E85FFE4F8081281B310941095109C901D5
:101B90001F910F91FF90EF900895DF92EF92FF92C7
:101BA0000F931F93FC01E480F58006811781D1809B
:101BB0008081823048F480E090E0A0E1B0E0E82A43
:101BC000F92A0A2B1B2BA5C0843009F49FC0823050
:101BD00021F4EE24FF24870105C0E114F10401057E
:101BE000110519F4E0E0F0E096C0628173819FEF87
:101BF000623879070CF05BC022E83FEF261B370BF9
:101C00002A3131052CF020E030E040E050E02AC0DD
:101C1000B801A701022E04C07695679557954795A0
:101C20000A94D2F781E090E0A0E0B0E004C0880F11
:101C3000991FAA1FBB1F2A95D2F70197A109B109C5
:101C40008E219F21A023B1230097A105B10521F08A
:101C500081E090E0A0E0B0E09A01AB01282B392BA5
:101C60004A2B5B2BDA01C9018F779070A070B0709E
:101C700080349105A105B10539F427FF09C0205C26
:101C80003F4F4F4F5F4F04C0215C3F4F4F4F5F4F5F
:101C9000E0E0F0E02030A0E03A07A0E04A07A0E44E
:101CA0005A0710F0E1E0F0E079018A0127C06038BE
:101CB000710564F5FB01E158FF4FD801C7018F772B
:101CC0009070A070B07080349105A105B10539F411
:101CD000E7FE0DC080E490E0A0E0B0E004C08FE338
:101CE00090E0A0E0B0E0E80EF91E0A1F1B1F17FFEE
:101CF00005C016950795F794E794319687E01695F9
:101D00000795F794E7948A95D1F705C0EE24FF2450
:101D10008701EFEFF0E06E2F679566276795902FAC
:101D20009F77D794DD24D7948E2F8695492F462B05
:101D3000582F5D29B701CA011F910F91FF90EF90B5
:101D4000DF900895FC01DB01408151812281622FE7
:101D50006F7770E0221F2227221F9381892F880F1F
:101D6000822B282F30E0991F9927991F11969C9359
:101D7000119721153105A9F5411551056105710529
:101D800011F482E037C082E89FEF13969C938E9304
:101D900012979A01AB0167E0220F331F441F551FB2
:101DA0006A95D1F783E08C930DC0220F331F441F37
:101DB000551F12968D919C911397019713969C93A2
:101DC0008E931297203080E0380780E0480780E447
:101DD000580758F314962D933D934D935C931797A2
:101DE00008952F3F310579F44115510561057105BD
:101DF00019F484E08C93089564FF03C081E08C9310
:101E000012C01C9210C02F57304013963C932E9353
:101E1000129783E08C9387E0440F551F661F771F4E
:101E20008A95D1F7706414964D935D936D937C936E
:101E3000179708951F93DC01FB019C91923008F4E1
:101E400047C08081823008F443C0943051F4119629
:101E50001C91843099F58181682F70E0611B7109B4
:101E60003FC0843021F0923031F48230B9F1818169
:101E7000882389F12DC011961C9111978230F1F0C1
:101E800081811817D9F412962D913C911397828174
:101E900093818217930794F028173907BCF01496A2
:101EA0008D919D910D90BC91A02D2481358146810D
:101EB0005781281739074A075B0718F4112341F0A7
:101EC0000AC082179307A407B50740F4112319F03D
:101ED00061E070E005C06FEF7FEF02C060E070E08E
:101EE000CB011F91089597FB092E07260AD077FD95
:101EF00004D00CD006D000201AF4709561957F4F65
:101F00000895F6F7909581959F4F0895AA1BBB1BE6
:101F100051E107C0AA1FBB1FA617B70710F0A61BE9
:101F2000B70B881F991F5A95A9F780959095BC010A
:101F3000CD0108952F923F924F925F926F927F92C0
:101F40008F929F92AF92BF92CF92DF92EF92FF92C9
:101F50000F931F93CF93DF93CDB7DEB7CA1BDB0B75
:101F60000FB6F894DEBF0FBECDBF09942A8839881A
:101F700048885F846E847D848C849B84AA84B98421
:101F8000C884DF80EE80FD800C811B81AA81B9812D
:101F9000CE0FD11D0FB6F894DEBF0FBECDBFED0141
:061FA0000895F894FFCF44
:101FA600000000000000000000010202030303031A
:101FB60004040404040404040505050505050505D3
:101FC60005050505050505050606060606060606B3
:101FD600060606060606060606060606060606069B
:101FE6000606060606060606070707070707070783
:101FF600070707070707070707070707070707076B
:10200600070707070707070707070707070707075A
:10201600070707070707070707070707070707074A
:102026000707070707070707080808080808080832
:10203600080808080808080808080808080808081A
:10204600080808080808080808080808080808080A
:1020560008080808080808080808080808080808FA
:1020660008080808080808080808080808080808EA
:1020760008080808080808080808080808080808DA
:1020860008080808080808080808080808080808CA
:1020960008080808080808080808080808080808BA
:0820A6000808080808080808F2
:00000001FF
