:100000000C9434000C942D020C9451000C9451006B
:100010000C9451000C9451000C9451000C9451001C
:100020000C9451000C9451000C9451000C9451000C
:100030000C9451000C9451000C9451000C945100FC
:100040000C9453000C9451000C9451000C945100EA
:100050000C9451000C9451000C9451000C945100DC
:100060000C9451000C94510011241FBECFEFD8E026
:10007000DEBFCDBF12E0A8E0B2E001C01D92A23108
:10008000B107E1F712E0A0E0B1E0E6E6FCE002C073
:1000900005900D92A830B107D9F70E94B9000C94D1
:1000A00031060C9400001F920F920FB60F9211248C
:1000B0008F939F93AF93BF93809108029091090211
:1000C000A0910A02B0910B020196A11DB11D80936F
:1000D000080290930902A0930A02B0930B02BF9109
:1000E000AF919F918F910F900FBE0F901F90189519
:1000F00014BC81E085BD80936E00789408952091B2
:1001000008023091090240910A0250910B02B90194
:10011000CA0108958AB180668AB9219A84B5836A32
:1001200084BD85B5836085BDE0E8F0E080818168AD
:100130008083E1E8F0E080818B608083089587BD53
:1001400068BD50E05093890040938800089580E492
:1001500080937C0080917A00806C80937A008091FB
:100160007A0086FDFCCF2091780030917900C9019A
:1001700008954F925F926F927F928F929F92BF925B
:10018000CF92DF92EF92FF920F931F93DF93CF9363
:1001900000D000D0CDB7DEB714BC81E085BD809320
:1001A0006E0078940E948A000E9424021A821982AA
:1001B0001C821B82BB24CC24DD24E3E04E2E512C78
:1001C0004C0E5D1E3E010894611C711C70E9872E67
:1001D00071E0972E80910D02882309F499C0C30124
:1001E000B2010E949601882309F056C069817A8184
:1001F00080E090E00E94650320E030E040E251E4BE
:100200000E9489027B018C0120E030E040EF51E444
:100210000E943503181624F0BB24BA94CC240EC0D7
:10022000C801B70120E030E04AEF51E40E943503F5
:10023000181634F060E8B62E50E8C52EDD242CC028
:10024000C801B70120E030E042E052E40E943503EB
:10025000181624F0BB24CC24CA94F0CFC801B701EF
:1002600020E030E047E052E40E943503181634F0F5
:10027000BB2440E8C42E30E8D32E0EC0C801B7011D
:1002800020E030E04CE052E40E943503181624F0E0
:10029000BB24CC24DD24DA940E94A7009695879590
:1002A000969587958095282F30E08B2D90E0AC01B6
:1002B000249FC001259F900D349F900D11246FEF56
:1002C00070E00E94D305462F8C2D90E0BC01269F44
:1002D000C001279F900D369F900D11246FEF70E0A5
:1002E0000E94D30547BD68BD8D2D90E0AC01249FD1
:1002F000C001259F900D349F900D11246FEF70E089
:100300000E94D30570E0709389006093880006C056
:1003100017BC18BC109289001092880080ED97E0FD
:10032000F4013197F1F70197D9F754CFEF92FF928B
:100330000F931F93DF93CF9300D000D00F92CDB7D0
:10034000DEB77C018B01209A289888EC90E020E9A8
:1003500031E0F9013197F1F70197D9F7289A85ED46
:100360008A95F1F7209880E004C08F5F893C09F4FA
:100370004EC0189BFACF80E004C08F5F893C09F41F
:1003800046C01899FACFFE01319685E0DF011D9233
:100390008A95E9F790EAA1E0B0E0BE016A5F7F4F7D
:1003A0001DC0189BFECF892F8A95F1F7189B0AC0B4
:1003B0009D01042E02C0220F331F0A94E2F78081B0
:1003C000822B80831899FECF415050408FEF4F3FD2
:1003D000580739F73196E617F70719F047E050E06C
:1003E000E0CF8A81682F70E0E9819B012E0F311DDB
:1003F000FB812F0F311D8C81482F50E0240F351FBA
:100400008D8190E02817390779F08EEF01C08FEFCA
:100410000F900F900F900F900F90CF91DF911F9141
:100420000F91FF90EF9008959E2F80E0862B972BE1
:10043000D8018D939C939F2F80E0842B952BF701FF
:100440009183808380E0E4CF5298E9E6F0E08081F8
:1004500081608083E89A789408951F920F920FB676
:100460000F921124EF92FF920F931F932F933F93BC
:100470004F935F936F937F938F939F93AF93BF93AC
:10048000EF93FF930E947F009B01AC0180910E02CD
:1004900090910F02A0911002B091110279018A018E
:1004A000E81AF90A0A0B1B0BD801C701893C910510
:1004B000A105B105C8F080910C028F5F80930C02FA
:1004C00080910C02823041F480910D0291E08927E5
:1004D00080930D0210920C0220930E0230930F02B3
:1004E0004093100250931102FF91EF91BF91AF9191
:1004F0009F918F917F916F915F914F913F912F913C
:100500001F910F91FF90EF900F900FBE0F901F90D3
:100510001895A8E1B0E0EFE8F2E00C9402066983D8
:100520007A838B839C832D833E834F835887B9E0E6
:10053000EB2EF12CEC0EFD1ECE010196B7010E94B0
:1005400002058E010F5E1F4FCE010596B8010E9475
:1005500002052985223008F47EC03989323010F432
:10056000B8017CC08A859A8989278A87243011F04E
:10057000223031F4231709F06EC060E071E06EC0E4
:10058000343039F41D861E861F86188A1C861B8609
:1005900004C0323021F484E08987B7015FC02B8525
:1005A0003C858B899C89281B390B3C872B87ED84E4
:1005B000FE840F851889AD88BE88CF88D88CEA1450
:1005C000FB040C051D0540F4EE0CFF1C001F111F61
:1005D000215030403C872B8720E030E040E050E065
:1005E00080E090E0A0E0B0E460E070E0EA14FB049A
:1005F0000C051D0540F0282B392B4A2B5B2BEA18E4
:10060000FB080C091D09B695A79597958795EE0CE3
:10061000FF1C001F111F6F5F7F4F6F31710531F796
:10062000DA01C9018F779070A070B07080349105A5
:10063000A105B10561F427FD0AC0E114F10401052B
:10064000110529F0205C3F4F4F4F5F4F20782D87D9
:100650003E874F87588BBE01675F7F4FCB010E945B
:100660002D046896EAE00C941E06A8E1B0E0EBE3E6
:10067000F3E00C94060669837A838B839C832D8335
:100680003E834F83588789E0E82EF12CEC0EFD1E47
:10069000CE010196B7010E9402058E010F5E1F4F29
:1006A000CE010596B8010E9402058985823040F08E
:1006B0008989823028F0C701B8010E947A0501C0FB
:1006C00081E06896E6E00C942206A8E0B0E0EBE654
:1006D000F3E00C9402067B018C0161157105810524
:1006E000910519F482E0898360C083E089838EE1FB
:1006F000C82ED12CDC82CB82ED82FE820F8318873C
:10070000C801B7010E94DE03FC013197F7FF3BC02F
:10071000222733272E1B3F0B57016801022E04C0EE
:10072000D694C794B794A7940A94D2F740E050E0C7
:1007300060E070E081E090E0A0E0B0E004C0880FED
:10074000991FAA1FBB1F2A95D2F70197A109B109CA
:100750008E219F21A023B1230097A105B10521F08F
:1007600041E050E060E070E04A295B296C297D2976
:100770004D835E836F8378878EE190E08E1B9F0BA5
:100780009C838B8312C0309781F00E2E04C0EE0C38
:10079000FF1C001F111F0A94D2F7ED82FE820F8307
:1007A0001887CE1ADF0ADC82CB821A82CE0101962C
:1007B0000E942D042896EAE00C941E06EF92FF9208
:1007C0000F931F937B018C0180E0E81680E0F80610
:1007D00081E0080780E0180788F48FEFE816F1043D
:1007E0000105110531F028F088E090E0A0E0B0E0CC
:1007F00017C080E090E0A0E0B0E012C080E0E81612
:1008000080E0F80680E0080781E0180728F088E11A
:1008100090E0A0E0B0E004C080E190E0A0E0B0E0B3
:1008200020E230E040E050E0281B390B4A0B5B0B24
:1008300004C016950795F794E7948A95D2F7F701C7
:10084000E85FFE4F8081281B310941095109C90128
:100850001F910F91FF90EF900895DF92EF92FF921A
:100860000F931F93FC01E480F58006811781D180EE
:100870008081823048F480E090E0A0E1B0E0E82A96
:10088000F92A0A2B1B2BA5C0843009F49FC08230A3
:1008900021F4EE24FF24870105C0E114F1040105D1
:1008A000110519F4E0E0F0E096C0628173819FEFDA
:1008B000623879070CF05BC022E83FEF261B370B4C
:1008C0002A3131052CF020E030E040E050E02AC031
:1008D000B801A701022E04C07695679557954795F4
:1008E0000A94D2F781E090E0A0E0B0E004C0880F65
:1008F000991FAA1FBB1F2A95D2F70197A109B10919
:100900008E219F21A023B1230097A105B10521F0DD
:1009100081E090E0A0E0B0E09A01AB01282B392BF8
:100920004A2B5B2BDA01C9018F779070A070B070F1
:1009300080349105A105B10539F427FF09C0205C79
:100940003F4F4F4F5F4F04C0215C3F4F4F4F5F4FB2
:10095000E0E0F0E02030A0E03A07A0E04A07A0E4A1
:100960005A0710F0E1E0F0E079018A0127C0603811
:10097000710564F5FB01E158FF4FD801C7018F777E
:100980009070A070B07080349105A105B10539F464
:10099000E7FE0DC080E490E0A0E0B0E004C08FE38B
:1009A00090E0A0E0B0E0E80EF91E0A1F1B1F17FF41
:1009B00005C016950795F794E794319687E016954C
:1009C0000795F794E7948A95D1F705C0EE24FF24A4
:1009D0008701EFEFF0E06E2F679566276795902F00
:1009E0009F77D794DD24D7948E2F8695492F462B59
:1009F000582F5D29B701CA011F910F91FF90EF9009
:100A0000DF900895FC01DB01408151812281622F3A
:100A10006F7770E0221F2227221F9381892F880F72
:100A2000822B282F30E0991F9927991F11969C93AC
:100A3000119721153105A9F541155105610571057C
:100A400011F482E037C082E89FEF13969C938E9357
:100A500012979A01AB0167E0220F331F441F551F05
:100A60006A95D1F783E08C930DC0220F331F441F8A
:100A7000551F12968D919C911397019713969C93F5
:100A80008E931297203080E0380780E0480780E49A
:100A9000580758F314962D933D934D935C931797F5
:100AA00008952F3F310579F4411551056105710510
:100AB00019F484E08C93089564FF03C081E08C9363
:100AC00012C01C9210C02F57304013963C932E93A7
:100AD000129783E08C9387E0440F551F661F771FA2
:100AE0008A95D1F7706414964D935D936D937C93C2
:100AF000179708951F93DC01FB019C91923008F435
:100B000047C08081823008F443C0943051F411967C
:100B10001C91843099F58181682F70E0611B710907
:100B20003FC0843021F0923031F48230B9F18181BC
:100B3000882389F12DC011961C9111978230F1F014
:100B400081811817D9F412962D913C9113978281C7
:100B500093818217930794F028173907BCF01496F5
:100B60008D919D910D90BC91A02D24813581468160
:100B70005781281739074A075B0718F4112341F0FA
:100B80000AC082179307A407B50740F4112319F090
:100B900061E070E005C06FEF7FEF02C060E070E0E1
:100BA000CB011F91089597FB092E07260AD077FDE8
:100BB00004D00CD006D000201AF4709561957F4FB8
:100BC0000895F6F7909581959F4F0895AA1BBB1B3A
:100BD00051E107C0AA1FBB1FA617B70710F0A61B3D
:100BE000B70B881F991F5A95A9F780959095BC015E
:100BF000CD0108952F923F924F925F926F927F9214
:100C00008F929F92AF92BF92CF92DF92EF92FF921C
:100C10000F931F93CF93DF93CDB7DEB7CA1BDB0BC8
:100C20000FB6F894DEBF0FBECDBF09942A8839886D
:100C300048885F846E847D848C849B84AA84B98474
:100C4000C884DF80EE80FD800C811B81AA81B98180
:100C5000CE0FD11D0FB6F894DEBF0FBECDBFED0194
:060C60000895F894FFCF97
:100C6600000000000000000000010202030303036D
:100C76000404040404040404050505050505050526
:100C86000505050505050505060606060606060606
:100C960006060606060606060606060606060606EE
:100CA60006060606060606060707070707070707D6
:100CB60007070707070707070707070707070707BE
:100CC60007070707070707070707070707070707AE
:100CD600070707070707070707070707070707079E
:100CE6000707070707070707080808080808080886
:100CF600080808080808080808080808080808086E
:100D0600080808080808080808080808080808085D
:100D1600080808080808080808080808080808084D
:100D2600080808080808080808080808080808083D
:100D3600080808080808080808080808080808082D
:100D4600080808080808080808080808080808081D
:100D5600080808080808080808080808080808080D
:080D6600080808080808080845
:00000001FF
